{
  "contractName": "Defi",
  "abi": [
    {
      "inputs": [
        {
          "internalType": "address",
          "name": "daiaddress",
          "type": "address"
        }
      ],
      "stateMutability": "nonpayable",
      "type": "constructor"
    },
    {
      "inputs": [],
      "name": "getbalance",
      "outputs": [
        {
          "internalType": "uint256",
          "name": "",
          "type": "uint256"
        }
      ],
      "stateMutability": "view",
      "type": "function",
      "constant": true
    },
    {
      "inputs": [],
      "name": "tokenbalance",
      "outputs": [
        {
          "internalType": "uint256",
          "name": "",
          "type": "uint256"
        }
      ],
      "stateMutability": "nonpayable",
      "type": "function"
    },
    {
      "inputs": [
        {
          "internalType": "address",
          "name": "given",
          "type": "address"
        }
      ],
      "name": "tokenbalance",
      "outputs": [
        {
          "internalType": "uint256",
          "name": "",
          "type": "uint256"
        }
      ],
      "stateMutability": "nonpayable",
      "type": "function"
    },
    {
      "inputs": [
        {
          "internalType": "address",
          "name": "receipent",
          "type": "address"
        },
        {
          "internalType": "uint256",
          "name": "amount",
          "type": "uint256"
        }
      ],
      "name": "transfer",
      "outputs": [],
      "stateMutability": "nonpayable",
      "type": "function"
    }
  ],
  "bytecode": "0x608060405234801561001057600080fd5b50604051610649380380610649833981810160405281019061003291906100db565b806000806101000a81548173ffffffffffffffffffffffffffffffffffffffff021916908373ffffffffffffffffffffffffffffffffffffffff16021790555050610108565b600080fd5b600073ffffffffffffffffffffffffffffffffffffffff82169050919050565b60006100a88261007d565b9050919050565b6100b88161009d565b81146100c357600080fd5b50565b6000815190506100d5816100af565b92915050565b6000602082840312156100f1576100f0610078565b5b60006100ff848285016100c6565b91505092915050565b610532806101176000396000f3fe608060405234801561001057600080fd5b506004361061004c5760003560e01c806308c9a947146100515780634d9b3d5d1461006f578063a9059cbb1461008d578063e90c0f2c146100a9575b600080fd5b6100596100d9565b60405161006691906102eb565b60405180910390f35b61007761017f565b60405161008491906102eb565b60405180910390f35b6100a760048036038101906100a29190610395565b610187565b005b6100c360048036038101906100be91906103d5565b61022a565b6040516100d091906102eb565b60405180910390f35b60008060008054906101000a900473ffffffffffffffffffffffffffffffffffffffff1673ffffffffffffffffffffffffffffffffffffffff166370a08231306040518263ffffffff1660e01b81526004016101359190610411565b602060405180830381865afa158015610152573d6000803e3d6000fd5b505050506040513d601f19601f820116820180604052508101906101769190610441565b90508091505090565b600047905090565b60008054906101000a900473ffffffffffffffffffffffffffffffffffffffff1673ffffffffffffffffffffffffffffffffffffffff1663a9059cbb83836040518363ffffffff1660e01b81526004016101e292919061046e565b6020604051808303816000875af1158015610201573d6000803e3d6000fd5b505050506040513d601f19601f8201168201806040525081019061022591906104cf565b505050565b60008060008054906101000a900473ffffffffffffffffffffffffffffffffffffffff1673ffffffffffffffffffffffffffffffffffffffff166370a08231846040518263ffffffff1660e01b81526004016102869190610411565b602060405180830381865afa1580156102a3573d6000803e3d6000fd5b505050506040513d601f19601f820116820180604052508101906102c79190610441565b905080915050919050565b6000819050919050565b6102e5816102d2565b82525050565b600060208201905061030060008301846102dc565b92915050565b600080fd5b600073ffffffffffffffffffffffffffffffffffffffff82169050919050565b60006103368261030b565b9050919050565b6103468161032b565b811461035157600080fd5b50565b6000813590506103638161033d565b92915050565b610372816102d2565b811461037d57600080fd5b50565b60008135905061038f81610369565b92915050565b600080604083850312156103ac576103ab610306565b5b60006103ba85828601610354565b92505060206103cb85828601610380565b9150509250929050565b6000602082840312156103eb576103ea610306565b5b60006103f984828501610354565b91505092915050565b61040b8161032b565b82525050565b60006020820190506104266000830184610402565b92915050565b60008151905061043b81610369565b92915050565b60006020828403121561045757610456610306565b5b60006104658482850161042c565b91505092915050565b60006040820190506104836000830185610402565b61049060208301846102dc565b9392505050565b60008115159050919050565b6104ac81610497565b81146104b757600080fd5b50565b6000815190506104c9816104a3565b92915050565b6000602082840312156104e5576104e4610306565b5b60006104f3848285016104ba565b9150509291505056fea26469706673582212209b45d55a652f643d648bdf4361ec67c387a75d0ca599a0fce14221df25bab13f64736f6c634300080f0033",
  "immutableReferences": {},
  "source": "pragma solidity >=0.5.0 <0.9.0;\r\nimport '../node_modules/@openzeppelin/contracts/token/ERC20/IERC20.sol';\r\n\r\ncontract Defi{\r\n\r\n    //This is the state variable of IERC20\r\n    IERC20 dai;\r\n\r\n    constructor(address daiaddress)\r\n    {\r\n        dai=IERC20(daiaddress);\r\n    }\r\n\r\n    //This function returns the ether balance of the smart contract\r\n    function getbalance() public view returns(uint){\r\n        return address(this).balance;\r\n    }\r\n\r\n    //This function returns the token balance of the smart contract\r\n    function tokenbalance() public returns(uint){\r\n        uint balance=dai.balanceOf(address(this));\r\n        return balance;\r\n    }\r\n\r\n    function tokenbalance(address given) public returns(uint)\r\n    {\r\n        uint balance=dai.balanceOf(given);\r\n        return balance;\r\n    }\r\n\r\n    //This is the function for transferring the dai tokens from the contract address to the some other address\r\n    //As the msg.sender is the defi smart contract the tokens will be transferred from defi address to the account address\r\n    function transfer(address receipent,uint amount) external\r\n    {\r\n        dai.transfer(receipent,amount);\r\n    }\r\n}",
  "sourcePath": "C:\\Users\\Bhaskar\\Desktop\\web 3.0\\truffle\\dai_token\\contracts\\Defi.sol",
  "compiler": {
    "name": "solc",
    "version": "0.8.15+commit.e14f2714.Emscripten.clang"
  },
  "schemaVersion": "3.4.8",
  "updatedAt": "2022-07-20T15:32:20.735Z",
  "networkType": "ethereum",
  "devdoc": {
    "kind": "dev",
    "methods": {},
    "version": 1
  },
  "userdoc": {
    "kind": "user",
    "methods": {},
    "version": 1
  }
}